:020000040800F2
:100000000080012019100008A10F0008A70F0008A8
:10001000AD0F0008B30F0008B90F00080000000082
:10002000000000000000000000000000BF0F0008FA
:10003000CD0F000800000000DB0F0008E90F0008EA
:1000400069100008691000086910000869100008AC
:10005000691000086910000869100008691000089C
:10006000691000086910000869100008691000088C
:10007000691000086910000869100008691000087C
:10008000691000086910000869100008691000086C
:10009000691000086910000869100008691000085C
:1000A000691000086910000869100008691000084C
:1000B000691000086910000869100008691000083C
:1000C000691000086910000869100008691000082C
:1000D000691000086910000869100008691000081C
:1000E000691000086910000869100008691000080C
:1000F00069100008691000086910000869100008FC
:1001000069100008691000086910000869100008EB
:1001100069100008691000086910000869100008DB
:1001200069100008691000086910000869100008CB
:1001300069100008691000086910000869100008BB
:1001400069100008691000086910000869100008AB
:10015000691000086910000869100008691000089B
:10016000691000086910000869100008691000088B
:1001700069100008691000086910000800000000FC
:08018000691000086910000875
:1001880010B5054C237833B9044B13B10448AFF3C9
:1001980000800123237010BD0C0000200000000027
:1001A800483A000808B5034B1BB103490348AFF3AD
:1001B800008008BD0000000010000020483A000838
:1001C80081F0004102E000BF83F0004330B54FEA00
:1001D80041044FEA430594EA050F08BF90EA020F6D
:1001E8001FBF54EA000C55EA020C7FEA645C7FEA00
:1001F800655C00F0E2804FEA5454D4EB5555B8BF23
:100208006D420CDD2C4480EA020281EA030382EA93
:10021800000083EA010180EA020281EA0303362D25
:1002280088BF30BD11F0004F4FEA01314FF4801CF8
:100238004CEA113102D0404261EB410113F0004F0A
:100248004FEA03334CEA133302D0524263EB4303C1
:1002580094EA050F00F0A780A4F10104D5F1200E5F
:100268000DDB02FA0EFC22FA05F2801841F10001BA
:1002780003FA0EF2801843FA05F359410EE0A5F18E
:1002880020050EF1200E012A03FA0EFC28BF4CF0BF
:10029800020C43FA05F3C01851EBE37101F0004575
:1002A80007D54FF0000EDCF1000C7EEB00006EEB82
:1002B8000101B1F5801F1BD3B1F5001F0CD349080C
:1002C8005FEA30004FEA3C0C04F101044FEA445263
:1002D80012F5800F80F09A80BCF1004F08BF5FEAEA
:1002E800500C50F1000041EB045141EA050130BDCA
:1002F8005FEA4C0C404141EB0101013C28BFB1F5DC
:10030800801FE9D291F0000F04BF01460020B1FA26
:1003180081F308BF2033A3F10B03B3F120020CDAF9
:100328000C3208DD02F1140CC2F10C0201FA0CF0D7
:1003380021FA02F10CE002F11402D8BFC2F1200C3C
:1003480001FA02F120FA0CFCDCBF41EA0C019040F2
:10035800E41AA2BF01EB0451294330BD6FEA04043B
:100368001F3C1CDA0C340EDC04F11404C4F1200226
:1003780020FA04F001FA02F340EA030021FA04F338
:1003880045EA030130BDC4F10C04C4F1200220FA8F
:1003980002F001FA04F340EA0300294630BD21FACD
:1003A80004F0294630BD94F0000F83F4801306BF93
:1003B80081F480110134013D4EE77FEA645C18BF87
:1003C8007FEA655C29D094EA050F08BF90EA020F1E
:1003D80005D054EA000C04BF1946104630BD91EA16
:1003E800030F1EBF0021002030BD5FEA545C05D119
:1003F8004000494128BF41F0004130BD14F5800458
:100408003CBF01F5801130BD01F0004545F0FE41CB
:1004180041F470014FF0000030BD7FEA645C1ABF00
:10042800194610467FEA655C1CBF0B46024650EA37
:10043800013406BF52EA033591EA030F41F4002163
:1004480030BD00BF90F0000F04BF0021704730B5E9
:100458004FF4806404F132044FF000054FF00001BE
:1004680050E700BF90F0000F04BF0021704730B57F
:100478004FF4806404F1320410F0004548BF404254
:100488004FF000013EE700BF42004FEAE2014FEAA9
:1004980031014FEA02701FBF12F07F4393F07F4F84
:1004A80081F06051704732F07F4208BF704793F087
:1004B8007F4F04BF41F40021704730B54FF460749A
:1004C80001F0004521F000411CE700BF50EA01029D
:1004D80008BF704730B54FF000050AE050EA010246
:1004E80008BF704730B511F0004502D5404261EBB6
:1004F80041014FF4806404F132045FEA915C3FF4F7
:10050800D8AE4FF003025FEADC0C18BF03325FEA93
:10051800DC0C18BF033202EBDC02C2F1200300FA44
:1005280003FC20FA02F001FA03FE40EA0E0021FA69
:1005380002F11444BDE600BF70B54FF0FF0C4CF457
:10054800E06C1CEA11541DBF1CEA135594EA0C0F09
:1005580095EA0C0F00F0DEF82C4481EA030621EA44
:100568004C5123EA4C5350EA013518BF52EA03357F
:1005780041F4801143F4801338D0A0FB02CE4FF031
:100588000005E1FB02E506F00042E0FB03E54FF061
:100598000006E1FB03569CF0000F18BF4EF0010E59
:1005A800A4F1FF04B6F5007F64F5407404D25FEA55
:1005B8004E0E6D4146EB060642EAC62141EA555108
:1005C8004FEAC52040EA5E504FEACE2EB4F1FD0C4A
:1005D80088BFBCF5E06F1ED8BEF1004F08BF5FEAC8
:1005E800500E50F1000041EB045170BD06F000467A
:1005F80046EA010140EA020081EA0301B4EB5C0427
:10060800C2BFD4EB0C0541EA045170BD41F480111E
:100618004FF0000E013C00F3AB8014F1360FDEBF43
:10062800002001F0004170BDC4F10004203C35DA1F
:100638000C341BDC04F11404C4F1200500FA05F3A2
:1006480020FA04F001FA05F240EA020001F0004243
:1006580021F0004110EBD37021FA04F642EB0601B9
:100668005EEA430E08BF20EAD37070BDC4F10C04E3
:10067800C4F1200500FA04F320FA05F001FA04F2A7
:1006880040EA020001F0004110EBD37041F1000193
:100698005EEA430E08BF20EAD37070BDC4F120059E
:1006A80000FA05F24EEA020E20FA04F301FA05F206
:1006B80043EA020321FA04F001F0004121FA04F2AE
:1006C80020EA020000EBD3705EEA430E08BF20EA7E
:1006D800D37070BD94F0000F0FD101F000464000B8
:1006E80041EB010111F4801F08BF013CF7D041EA3A
:1006F800060195F0000F18BF704703F0004652003E
:1007080043EB030313F4801F08BF013DF7D043EA0E
:100718000603704794EA0C0F0CEA135518BF95EAC4
:100728000C0F0CD050EA410618BF52EA4306D1D14B
:1007380081EA030101F000414FF0000070BD50EA6A
:10074800410606BF1046194652EA430619D094EAF4
:100758000C0F02D150EA013613D195EA0C0F05D1DE
:1007680052EA03361CBF104619460AD181EA030132
:1007780001F0004141F0FE4141F470014FF00000EA
:1007880070BD41F0FE4141F4780170BD70B54FF085
:10079800FF0C4CF4E06C1CEA11541DBF1CEA135505
:1007A80094EA0C0F95EA0C0F00F0A7F8A4EB0504E7
:1007B80081EA030E52EA03354FEA013100F08880DE
:1007C8004FEA03334FF0805545EA131343EA1263A7
:1007D8004FEA022245EA111545EA10654FEA00265C
:1007E8000EF000419D4208BF964244F1FD0404F515
:1007F800407402D25B084FEA3202B61A65EB030571
:100808005B084FEA32024FF480104FF4002CB6EB2D
:10081800020E75EB030E22BFB61A754640EA0C00AD
:100828005B084FEA3202B6EB020E75EB030E22BFED
:10083800B61A754640EA5C005B084FEA3202B6EB2E
:10084800020E75EB030E22BFB61A754640EA9C00ED
:100858005B084FEA3202B6EB020E75EB030E22BFBD
:10086800B61A754640EADC0055EA060E18D04FEA7B
:10087800051545EA16754FEA06164FEAC30343EA1B
:1008880052734FEAC2025FEA1C1CC0D111F4801FE8
:100898000BD141EA00014FF000004FF0004CB6E7E1
:1008A80011F4801F04BF01430020B4F1FD0C88BF80
:1008B800BCF5E06F3FF6AFAEB5EB030C04BFB6EB8B
:1008C800020C5FEA500C50F1000041EB045170BD7E
:1008D8000EF0004E4EEA113114EB5C04C2BFD4EBAB
:1008E8000C0541EA045170BD41F480114FF0000E2F
:1008F800013C90E645EA060E8DE60CEA135594EAAB
:100908000C0F08BF95EA0C0F3FF43BAF94EA0C0FAD
:100918000AD150EA01347FF434AF95EA0C0F7FF422
:1009280025AF104619462CE795EA0C0F06D152EA76
:1009380003353FF4FDAE1046194622E750EA41065A
:1009480018BF52EA43067FF4C5AE50EA41047FF46B
:100958000DAF52EA43057FF4EBAE12E74FEA4102CE
:10096800B2F1E04324BFB3F5001CDCF1FE5C0DD905
:1009780001F0004C4FEAC0024CEA5070B2F1004F4F
:1009880040EB830008BF20F00100704711F0804F52
:1009980021D113F13872BCBF01F00040704741F417
:1009A80080114FEA5252C2F11802C2F1200C10FA1B
:1009B8000CF320FA02F018BF40F001004FEAC123FF
:1009C8004FEAD32303FA0CFC40EA0C0023FA02F3A3
:1009D8004FEA4303CCE77FEA625307D150EA013379
:1009E8001EBF4FF0FE4040F44000704701F0004049
:1009F80040F0FE4040F40000704700BF2DE9B043CE
:100A080096B002AF78600B467B8048F688133B852A
:100A180048F68A33BB8448F68C533B84FA233B74EC
:100A280007F110027988642300930123786800F0A5
:100A3800F1FE07F10C027988642300930323786898
:100A480000F0DCFF07F12802798864230093012372
:100A5800786800F0DFFE07F11C02798864230093B0
:100A68000223786800F0CAFF07F12402798864231A
:100A780000930123786800F0CDFE07F11802798809
:100A8800642300930223786800F0B8FF07F120027E
:100A98007988642300930123786800F0BBFE07F18E
:100AA80014027988642300930223786800F0A6FF73
:100AB8007B7FA7F84E30B7F84E301B029AB23B7FC7
:100AC8009BB21344A7F84E307B7EA7F84C30B7F89A
:100AD8004C301B029AB23B7E9BB213449BB2A7F8E0
:100AE8004C307B7DA7F84A30B7F84A301B029AB2DF
:100AF8003B7D9BB213449BB2A7F84A303B7B7B6497
:100B08007B6C1B037B647B7B1B017A6C13447B64CB
:100B18003B7B1A467B6C13447B647B6C3B64386C70
:100B2800FFF7A0FC4FF00002504BFFF72FFE0246E4
:100B38000B4614461D46B7F84E301846FFF782FCA0
:100B48004FF000024A4BFFF721FE02460B462046B3
:100B58002946FFF739FB02460B4614461D46B7F9EE
:100B68004C301846FFF77EFC02460B4620462946C5
:100B7800FFF7E2FC02460B46C7E90E23386CFFF785
:100B880071FC4FF000024FF08243FFF7FFFD024671
:100B98000B4614461D46B7F84E301846FFF752FC70
:100BA8004FF00002334BFFF7F1FD02460B4620469B
:100BB8002946FFF709FB02460B4614461D46386CCA
:100BC800FFF750FC4FF000024FF08243FFF7DEFDC5
:100BD80002460B4690469946B7F84E301846FFF73E
:100BE80031FC4FF00002234BFFF7D0FD02460B46C5
:100BF80040464946FFF7E8FA02460B462046294692
:100C0800FFF79AFC02460B4614461D46B7F94A30D0
:100C18001846FFF727FC02460B4620462946FFF7F1
:100C28008BFC02460B46C7E90C23D7E90C23D7E90E
:100C38000E01FFF7CBFA02460B46104619464FF055
:100C480000020D4BFFF7A2FD02460B46104619465F
:100C5800FFF784FE0346FB62FB6A07EE903AB0EEAC
:100C6800670A5037BD46BDE8B08300BF0000D040DA
:100C7800000090400000C0400000B44080B584B03F
:100C880002AF00F0EFF900F02FF800F0BFF800F025
:100C98007DF842F2F4333B801E230222EC211148F6
:100CA80000F0A2FF0346002B08D1012220214FF0BB
:100CB800904000F007FD642000F050FA3A466423A3
:100CC80000930223EC21074800F0A4FDEC2105481D
:100CD800FFF794FE87ED010A4FF4967000F03EFA94
:100CE800F4E700BF2800002080B596B000AF07F1F8
:100CF800140344220021184602F09AFE3B460022C3
:100D08001A605A609A60DA601A614FF4007001F054
:100D180091FB0346002B01D000F0B6F802237B615B
:100D28004FF480733B6210237B620223FB63022330
:100D38003B6401237B640A23BB640723FB6402230F
:100D48003B6502237B6507F11403184601F0C8FBD5
:100D58000346002B01D000F097F80F233B600323D4
:100D68007B600023BB600023FB6000233B613B46A4
:100D78000421184601F090FF0346002B01D000F033
:100D880083F800BF5837BD4680BD000080B500AF6E
:100D98001B4B1C4A1A601A4B1B4A5A60184B0022FC
:100DA8009A60174B0122DA60154B00221A61144B26
:100DB80000225A61124B00229A61114B0022DA611B
:100DC8000F4B00221A620E4800F094FC0346002BD9
:100DD80001D000F059F80021094801F085FA0346CE
:100DE800002B01D000F050F80021054801F0C7FAA7
:100DF8000346002B01D000F047F800BF80BD00BFBC
:100E08002800002000540040EC9C901080B588B069
:100E180000AF07F10C0300221A605A609A60DA608A
:100E28001A61184BDB6C174A43F00103D364154B66
:100E3800DB6C03F00103BB60BB68124BDB6C114A2F
:100E480043F00203D3640F4BDB6C03F002037B60B7
:100E58007B68002220214FF0904000F033FC2023D3
:100E6800FB6001233B6102237B610023BB6107F127
:100E78000C0319464FF0904000F07AFA00BF203773
:100E8800BD4680BD0010024080B400AF72B600BFFE
:100E9800FEE7000080B483B000AF0F4B1B6E0E4A14
:100EA80043F0010313660C4B1B6E03F001037B60D8
:100EB8007B68094B9B6D084A43F080539365064B4A
:100EC8009B6D03F080533B603B6800BF0C37BD4609
:100ED8005DF8047B704700BF0010024080B5ACB0DD
:100EE80000AF786007F19C0300221A605A609A608C
:100EF800DA601A6107F1140388220021184602F00B
:100F080097FD7B681B68214A93423BD140237B6154
:100F180000237B6607F11403184602F0A9F803467C
:100F2800002B01D0FFF7B0FF194BDB6C184A43F0D8
:100F38000203D364164BDB6C03F002033B613B698D
:100F48004FF44073C7F89C301223C7F8A030002331
:100F5800C7F8A4300323C7F8A8300423C7F8AC3077
:100F680007F19C0319460B4800F002FA084B9B6DE9
:100F7800074A43F400139365054B9B6D03F4001374
:100F8800FB60FB6800BFB037BD4680BD0054004021
:100F9800001002400004004880B400AFFEE780B4AF
:100FA80000AFFEE780B400AFFEE780B400AFFEE715
:100FB80080B400AFFEE780B400AF00BFBD465DF867
:100FC800047B704780B400AF00BFBD465DF8047B6A
:100FD800704780B400AF00BFBD465DF8047B704722
:100FE80080B500AF00F09AF800BF80BD80B400AFB4
:100FF800064BD3F88830054A43F47003C2F88830AA
:1010080000BFBD465DF8047B704700BF00ED00E0FF
:10101800DFF834D0FFF7EAFF0C480D490D4A0023EA
:1010280002E0D458C4500433C4188C42F9D30A4A95
:101038000A4C002301E013600432A242FBD302F001
:10104800D3FCFFF71BFEFEE7008001200000002014
:101058000C000020A83A00080C00002080000020A6
:10106800FEE7000080B582B000AF0023FB710C4B97
:101078001B680B4A43F480731360032000F044F9A3
:10108800002000F00FF80346002B02D00123FB716B
:1010980001E0FFF7FFFEFB7918460837BD4680BD23
:1010A8000020024080B584B000AF78600023FB7355
:1010B800174B1B78002B23D0164B1A68144B1B7840
:1010C80019464FF47A73B3FBF1F3B2FBF3F3184606
:1010D80000F041F90346002B0FD17B680F2B09D88C
:1010E800002279684FF0FF3000F019F90A4A7B684E
:1010F800136007E00123FB7304E00123FB7301E0A5
:101108000123FB73FB7B18461037BD4680BD00BF2B
:1011180008000020000000200400002080B400AF78
:10112800064B1B781A46064B1B681344044A136087
:1011380000BFBD465DF8047B704700BF0800002073
:101148007C00002080B400AF034B1B681846BD46E6
:101158005DF8047B704700BF7C00002080B584B038
:1011680000AF7860FFF7EEFFB8607B68FB60FB6854
:10117800B3F1FF3F05D00A4B1B781A46FB681344AE
:10118800FB6000BFFFF7DEFF0246BB68D31AFA68B0
:101198009A42F7D800BF00BF1037BD4680BD00BFD8
:1011A8000800002080B485B000AF78607B6803F049
:1011B8000703FB600C4BDB68BB60BA684FF6FF03A4
:1011C8001340BB60FB681A02BB68134343F0BF635C
:1011D80043F40033BB60044ABB68D36000BF1437D4
:1011E800BD465DF8047B704700ED00E080B400AFB9
:1011F800044BDB681B0A03F007031846BD465DF87D
:10120800047B704700ED00E080B483B000AF034674
:101218003960FB7197F90730002B0ADB3B68DAB2BB
:101228000C4997F907301201D2B20B4483F8002316
:101238000AE03B68DAB20849FB7903F00F03043B84
:101248001201D2B20B441A7600BF0C37BD465DF8C6
:10125800047B704700E100E000ED00E080B489B055
:1012680000AFF860B9607A60FB6803F00703FB61C0
:10127800FB69C3F10703042B28BF0423BB61FB6987
:101288000433062B02D9FB69033B00E000237B6192
:101298004FF0FF32BB6902FA03F3DA43BB681A4026
:1012A8007B699A404FF0FF317B6901FA03F3D94318
:1012B8007B680B40134318462437BD465DF8047B12
:1012C8007047000080B582B000AF78607B68013B52
:1012D800B3F1807F01D301230FE00A4A7B68013B09
:1012E80053600F214FF0FF30FFF78EFF054B0022B0
:1012F8009A60044B07221A60002318460837BD4637
:1013080080BD00BF10E000E080B582B000AF78601B
:101318007868FFF747FF00BF0837BD4680BD80B536
:1013280086B000AF0346B9607A60FB7300237B6127
:10133800FFF75CFF78617A68B9687869FFF78EFF14
:10134800024697F90F3011461846FFF75DFF00BFB8
:101358001837BD4680BD80B582B000AF7860786828
:10136800FFF7B0FF034618460837BD4680BD0000AA
:1013780080B487B000AF7860396000237B617FE17B
:101388003B681A6801217B6901FA03F31340FB608B
:10139800FB68002B00F071813B685B6803F0030376
:1013A800012B05D03B685B6803F00303022B30D1A7
:1013B8007B689B683B617B695B00032202FA03F34D
:1013C800DB433A6913403B613B68DA687B695B0041
:1013D80002FA03F33A6913433B617B683A699A60FE
:1013E8007B685B683B6101227B6902FA03F3DB439C
:1013F8003A6913403B613B685B681B0903F00102D3
:101408007B6902FA03F33A6913433B617B683A69E3
:101418005A603B685B6803F00303032B18D17B68B1
:10142800DB6A3B6101227B6902FA03F3DB433A6919
:1014380013403B613B685B68DB0803F001027B6992
:1014480002FA03F33A6913433B617B683A69DA624B
:101458003B685B6803F00303032B17D07B68DB68EA
:101468003B617B695B00032202FA03F3DB433A69C1
:1014780013403B613B689A687B695B0002FA03F39F
:101488003A6913433B617B683A69DA603B685B6899
:1014980003F00303022B23D17B69DA087B68083247
:1014A80053F822303B617B6903F007039B000F224E
:1014B80002FA03F3DB433A6913403B613B681A695C
:1014C8007B6903F007039B0002FA03F33A691343AD
:1014D8003B617B69DA087B680832396943F8221076
:1014E8007B681B683B617B695B00032202FA03F39C
:1014F800DB433A6913403B613B685B6803F00302D6
:101508007B695B0002FA03F33A6913433B617B682A
:101518003A691A603B685B6803F44033002B00F0BB
:10152800AC805F4B1B6E5E4A43F0010313665C4B55
:101538001B6E03F00103BB60BB685A4A7B699B08BA
:10154800023352F823303B617B6903F003039B00AD
:101558000F2202FA03F3DB433A6913403B617B68CD
:10156800B3F1904F25D07B684F4A93421FD07B68D8
:101578004E4A934219D07B684D4A934213D07B68F8
:101588004C4A93420DD07B684B4A934207D07B6804
:101598004A4A934201D106230CE007230AE00523B7
:1015A80008E0042306E0032304E0022302E0012309
:1015B80000E000237A6902F00302920093403A693E
:1015C80013433B6137497B699B0802333A6941F809
:1015D80023203B4B9B683B61FB68DB433A69134024
:1015E8003B613B685B6803F48013002B03D03A69C6
:1015F800FB6813433B61324A3B699360304BDB68BD
:101608003B61FB68DB433A6913403B613B685B68BD
:1016180003F40013002B03D03A69FB6813433B61C2
:10162800274A3B69D360264B5B683B61FB68DB4319
:101638003A6913403B613B685B6803F40033002B55
:1016480003D03A69FB6813433B611D4A3B69536009
:101658001B4B1B683B61FB68DB433A6913403B61EA
:101668003B685B6803F48033002B03D03A69FB685E
:1016780013433B61124A3B6913607B6901337B6109
:101688003B681A687B6922FA03F3002B7FF478AE73
:1016980000BF00BF1C37BD465DF8047B704700BF24
:1016A8000010024000000140000400480008004803
:1016B800000C0048001000480014004800180048BA
:1016C8000004014080B483B000AF78600B467B8093
:1016D80013467B707B78002B03D07A887B689A61ED
:1016E80002E07A887B689A6200BF0C37BD465DF8D5
:1016F800047B704780B582B000AF78607B68002BB0
:1017080001D1012381E07B6893F84130DBB2002BE3
:1017180006D17B68002283F840207868FFF7DEFB5B
:101728007B68242283F841207B681B681A687B68E1
:101738001B6822F001021A607B685A687B681B6884
:1017480022F070621A617B681B689A687B681B6864
:1017580022F400429A607B68DB68012B07D17B6822
:101768009A687B681B6842F400429A6006E07B68CE
:101778009A687B681B6842F404429A607B68DB685D
:10178800022B04D17B681B684FF400625A607B68A7
:101798001B685B687A68126843F0007343F400437F
:1017A80053607B681B68DA687B681B6822F4004218
:1017B800DA607B681A697B685B6942EA03017B68C7
:1017C8009B691A027B681B680A43DA607B68D969DF
:1017D8007B681A6A7B681B680A431A607B681B6807
:1017E8001A687B681B6842F001021A607B68002255
:1017F8005A647B68202283F841207B6800221A63A0
:101808007B68002283F84220002318460837BD462B
:1018180080BD000080B588B002AFF8607A601A46D3
:101828000B467B8113463B81FB6893F84130DBB262
:10183800202B40F0DA80FB6893F84030012B01D16F
:101848000223D3E0FB68012283F84020FFF77AFCEB
:1018580078617B690093192301224FF40041F868ED
:1018680000F0EDFA0346002B01D00123BEE0FB682F
:10187800212283F84120FB68102283F84220FB686C
:1018880000225A64FB687A685A62FB683A895A856A
:10189800FB6800225A63FB685B8D9BB2FF2B0ED955
:1018A800FB68FF221A85FB681B8DDAB27989514BD8
:1018B80000934FF08073F86800F0E4FC6CE0FB687C
:1018C8005B8D9AB2FB681A85FB681B8DDAB2798941
:1018D800484B00934FF00073F86800F0D3FC5BE0CE
:1018E8007A69396AF86800F0EAFA0346002B01D0F1
:1018F80001237BE0FB685B6A1A78FB681B689A62C5
:10190800FB685B6A5A1CFB685A62FB685B8D9BB27A
:10191800013B9AB2FB685A85FB681B8D013B9AB262
:10192800FB681A85FB685B8D9BB2002B34D0FB6883
:101938001B8D002B30D17B6900933B6A00228021EC
:10194800F86800F07CFA0346002B01D001234DE033
:10195800FB685B8D9BB2FF2B0ED9FB68FF221A85B3
:10196800FB681B8DDAB27989002300934FF08073EE
:10197800F86800F087FC0FE0FB685B8D9AB2FB68A3
:101988001A85FB681B8DDAB27989002300934FF022
:101998000073F86800F076FCFB685B8D9BB2002B47
:1019A8009ED17A69396AF86800F0C9FA0346002BB3
:1019B80001D001231AE0FB681B682022DA61FB686A
:1019C8001B685968FB681A680B4B0B405360FB682F
:1019D800202283F84120FB68002283F84220FB681C
:1019E800002283F84020002300E00223184618371D
:1019F800BD4680BD0020008000E800FE80B588B0AC
:101A080002AFF8607A601A460B467B8113463B8129
:101A1800FB6893F84130DBB2202B40F0DB80FB6899
:101A280093F84030012B01D10223D4E0FB68012256
:101A380083F84020FFF786FB78617B6900931923C0
:101A480001224FF40041F86800F0F9F90346002B31
:101A580001D00123BFE0FB68222283F84120FB6804
:101A6800102283F84220FB6800225A64FB687A68D7
:101A78005A62FB683A895A85FB6800225A63FB68F8
:101A88005B8D9BB2FF2B0ED9FB68FF221A85FB6882
:101A98001B8DDAB27989524B00934FF08073F86846
:101AA80000F0F0FB6DE0FB685B8D9AB2FB681A856D
:101AB800FB681B8DDAB27989494B00934FF00073AC
:101AC800F86800F0DFFB5CE07A69396AF86800F0D2
:101AD80073FA0346002B01D001237CE0FB681B68E6
:101AE8005A6AFB685B6AD2B21A70FB685B6A5A1C56
:101AF800FB685A62FB681B8D013B9AB2FB681A852A
:101B0800FB685B8D9BB2013B9AB2FB685A85FB6808
:101B18005B8D9BB2002B34D0FB681B8D002B30D122
:101B28007B6900933B6A00228021F86800F087F9FE
:101B38000346002B01D001234DE0FB685B8D9BB26F
:101B4800FF2B0ED9FB68FF221A85FB681B8DDAB2C2
:101B58007989002300934FF08073F86800F092FBB6
:101B68000FE0FB685B8D9AB2FB681A85FB681B8DDA
:101B7800DAB27989002300934FF00073F86800F017
:101B880081FBFB685B8D9BB2002B9DD17A69396A1A
:101B9800F86800F0D4F90346002B01D001231AE0BD
:101BA800FB681B682022DA61FB681B685968FB68C0
:101BB8001A680C4B0B405360FB68202283F84120C5
:101BC800FB68002283F84220FB68002283F840204B
:101BD800002300E0022318461837BD4680BD00BF29
:101BE8000024008000E800FE80B58AB002AFF860EB
:101BF8007A603B600B467B8100237B61FB6893F82E
:101C08004130DBB2202B40F0F180FB681B689B69F8
:101C180003F40043B3F5004F01D10223E7E0FB686A
:101C280093F84030012B01D10223E0E0FB68012248
:101C380083F84020FB68242283F84120FB680022B7
:101C48005A64FB68DB68012B07D17B89C3F309035E
:101C580043F0007343F4005304E07B89C3F30903A2
:101C680043F42053FA6812685360FFF76BFAB861BF
:101C7800FB681B689B6903F02003202B0CBF012322
:101C88000023DBB2FB77FB681B689B6903F010033A
:101C9800102B0CBF01230023DBB2BB7734E03B6879
:101CA800B3F1FF3F1AD0FFF74DFA0246BB69D31ACA
:101CB8003A689A4202D33B68002B0FD1FB68202276
:101CC80083F84120FB685B6C43F02002FB685A6490
:101CD800FB68002283F84020012388E0FB681B682A
:101CE8009B6903F02003202B0CBF01230023DBB2E8
:101CF800FB77FB681B689B6903F01003102B0CBF74
:101D080001230023DBB2BB77FB7F002B02D1BB7F13
:101D1800002BC4D0FB681B689B6903F01003102BD1
:101D28001AD0BB6900933B6800222021F86800F0B4
:101D380086F80346002B01D0012358E0FB681B6896
:101D48002022DA61FB68202283F84120FB68002208
:101D580083F8402000234AE0BB6900933B680022D7
:101D68002021F86800F06BF80346002B01D001230E
:101D78003DE0FB681B681022DA61FB681B682022C3
:101D8800DA617B697A689A4218D1FB681B685A68DD
:101D9800FB681B6842F480425A60BB6900933B6849
:101DA80000222021F86800F04AF80346002B01D0F1
:101DB80001231CE0FB681B682022DA617B69013380
:101DC8007B617B697A689A423FF63BAFFB682022C9
:101DD80083F84120FB685B6C43F02002FB685A647F
:101DE800FB68002283F84020012300E00223184604
:101DF8002037BD4680BD80B483B000AF78607B6873
:101E08001B689B6903F00203022B03D17B681B68E4
:101E180000229A627B681B689B6903F00103012B0F
:101E280007D07B681B689A697B681B6842F00102CF
:101E38009A6100BF0C37BD465DF8047B704780B5DA
:101E480084B000AFF860B9603B601346FB7122E0D4
:101E58003B68B3F1FF3F1ED0FFF774F90246BB6938
:101E6800D31A3A689A4202D33B68002B13D1FB6815
:101E78005B6C43F02002FB685A64FB68202283F8FD
:101E88004120FB68002283F84220FB68002283F887
:101E9800402001230FE0FB681B689A69BB68134068
:101EA800BA689A420CBF01230023DBB21A46FB79B9
:101EB8009A42CDD0002318461037BD4680BD80B564
:101EC80084B000AFF860B9607A602CE07A68B968CD
:101ED800F86800F0EBF80346002B01D001232AE054
:101EE800BB68B3F1FF3F1ED0FFF72CF902467B68B1
:101EF800D31ABA689A4202D3BB68002B13D1FB6885
:101F08005B6C43F02002FB685A64FB68202283F86C
:101F18004120FB68002283F84220FB68002283F8F6
:101F28004020012307E0FB681B689B6903F002035C
:101F3800022BCBD1002318461037BD4680BD80B593
:101F480084B000AFF860B9607A6028E07A68B96850
:101F5800F86800F0ABF80346002B01D0012326E017
:101F6800FFF7F0F802467B68D31ABA689A4202D3A0
:101F7800BB68002B13D1FB685B6C43F02002FB6845
:101F88005A64FB68202283F84120FB68002283F80A
:101F98004220FB68002283F84020012307E0FB6809
:101FA8001B689B6903F02003202BCFD10023184620
:101FB8001037BD4680BD000080B584B000AFF86022
:101FC800B9607A6064E07A68B968F86800F06EF819
:101FD8000346002B01D0012362E0FB681B689B6964
:101FE80003F02003202B38D1FB681B689B6903F0A2
:101FF8000403042B05D1FB681B8D002B01D00023A3
:102008004EE0FB681B689B6903F01003102B07D197
:10201800FB681B681022DA61FB6804225A6402E03C
:10202800FB6800225A64FB681B682022DA61FB689F
:102038001B685968FB681A681B4B0B405360FB68A8
:10204800202283F84120FB68002283F84220FB68A5
:10205800002283F84020012322E0FFF773F80246AC
:102068007B68D31ABA689A4202D3BB68002B0FD197
:10207800FB685B6C43F02002FB685A64FB68202213
:1020880083F84120FB68002283F84020012307E001
:10209800FB681B689B6903F00403042B93D100239E
:1020A80018461037BD4680BD00E800FE80B58AB0EE
:1020B80000AFF860B9607A60002387F82730FB68C2
:1020C8001B689B69BB6100233B627B68FB61BB6942
:1020D80003F01003002B75D0FB681B681022DA612F
:1020E80056E0BB68B3F1FF3F52D0FFF72BF802462A
:1020F800FB69D31ABA689A4202D3BB68002B47D14E
:10210800FB681B685B6803F480437B61FB6893F89A
:102118004230FB74FB681B689B6903F40043B3F50A
:10212800004F2ED17B69B3F5804F2AD0FB7C202B42
:1021380027D0FB681B685A68FB681B6842F480421A
:102148005A60FEF7FFFFF8611BE0FEF7FBFF02464F
:10215800FB69D31A192B14D9FB685B6C43F0200276
:10216800FB685A64FB68202283F84120FB68002240
:1021780083F84220FB68002283F84020012387F877
:102188002730FB681B689B6903F02003202BDCD1F8
:10219800FB681B689B6903F02003202B03D097F88A
:1021A8002730002B9DD097F82730002B03D1FB68F0
:1021B8001B682022DA613B6A43F004033B62012377
:1021C80087F82730FB681B689B69BB61BB6903F410
:1021D8008073002B0BD03B6A43F001033B62FB6822
:1021E8001B684FF48072DA61012387F82730BB69D6
:1021F80003F48063002B0BD03B6A43F008033B6277
:10220800FB681B684FF48062DA61012387F8273086
:10221800BB6903F40073002B0BD03B6A43F0020345
:102228003B62FB681B684FF40072DA61012387F890
:10223800273097F82730002B1CD0F868FFF7DBFD14
:10224800FB681B685968FB681A680D4B0B405360A4
:10225800FB685A6C3B6A1A43FB685A64FB68202285
:1022680083F84120FB68002283F84220FB680022A3
:1022780083F8402097F8273018462837BD4680BD98
:1022880000E800FE80B487B000AFF8607B600B46C2
:102298007B8113467B727B89C3F309027B7A1B041B
:1022A80003F47F031A437B681A433B6A134323F002
:1022B80000437B61FB681B685A683B6A5B0D03F44B
:1022C8008061084B0B43DB4302EA0301FB681B6890
:1022D8007A690A435A6000BF1C37BD465DF8047B23
:1022E800704700BFFF63FF0380B483B000AF78601E
:1022F80039607B6893F84130DBB2202B38D17B689A
:1023080093F84030012B01D1022332E07B6801228F
:1023180083F840207B68242283F841207B681B686F
:102328001A687B681B6822F001021A607B681B68C8
:102338001A687B681B6822F480521A607B681B68E5
:1023480019687B681B683A680A431A607B681B68CF
:102358001A687B681B6842F001021A607B682022B9
:1023680083F841207B68002283F84020002300E0A6
:10237800022318460C37BD465DF8047B704780B4CD
:1023880085B000AF786039607B6893F84130DBB284
:10239800202B39D17B6893F84030012B01D10223DF
:1023A80033E07B68012283F840207B68242283F88D
:1023B80041207B681B681A687B681B6822F0010251
:1023C8001A607B681B681B68FB60FB6823F47063FA
:1023D800FB603B681B02FA681343FB607B681B6861
:1023E800FA681A607B681B681A687B681B6842F089
:1023F80001021A607B68202283F841207B68002252
:1024080083F84020002300E0022318461437BD4615
:102418005DF8047B7047000080B400AF044B1B6874
:1024280003F4C0631846BD465DF8047B704700BFDF
:102438000070004080B485B000AF78607B68B3F569
:10244800007F30D1234B1B6803F4C063B3F5007FD2
:1024580038D0204B1B6823F4C0631E4A43F4007332
:1024680013601D4B1B68322202FB03F31B4AA2FBBD
:1024780003239B0C0133FB6002E0FB68013BFB601C
:10248800144B5B6903F48063B3F5806F02D1FB687A
:10249800002BF2D10F4B5B6903F48063B3F5806FB7
:1024A80010D103230FE00B4B1B6803F4C063B3F593
:1024B800806F07D0074B1B6823F4C063054A43F4B9
:1024C80080631360002318461437BD465DF8047B0B
:1024D800704700BF007000400000002083DE1B43EF
:1024E80080B588B000AF78607B68002B01D10123EC
:1024F800CAE3974B9B6803F00C03BB61944BDB6802
:1025080003F003037B617B681B6803F01003002B57
:1025180000F0E480BB69002B07D0BB690C2B40F0AE
:102528008B807B69012B40F08780894B1B6803F007
:102538000203002B05D07B689B69002B01D1012386
:10254800A2E37B681A6A824B1B6803F00803002B1E
:1025580004D07F4B1B6803F0F00305E07C4BD3F8F5
:1025680094301B0903F0F003934223D27B681B6A63
:10257800184600F01DFD0346002B01D0012383E31C
:10258800734B1B68724A43F008031360704B1B6857
:1025980023F0F0027B681B6A6D4913430B606C4B98
:1025A8005B6823F47F427B68DB691B02684913433D
:1025B8004B6025E0664B1B68654A43F008031360CF
:1025C800634B1B6823F0F0027B681B6A6049134366
:1025D8000B605F4B5B6823F47F427B68DB691B02FF
:1025E8005B4913434B60BB69002B09D17B681B6AAD
:1025F800184600F0DDFC0346002B01D0012343E31D
:1026080000F04AFC0246524B9B681B0903F00F037B
:102618005049CB5C03F01F0322FA03F34E4A1360C0
:102628004E4B1B681846FEF73DFD0346FB73FB7BCC
:10263800002B52D0FB7B27E37B689B69002B32D0B1
:10264800434B1B68424A43F001031360FEF77AFDCF
:10265800386108E0FEF776FD02463B69D31A022B83
:1026680001D9032310E33A4B1B6803F00203002B44
:10267800F0D0374B1B68364A43F008031360344BDD
:102688001B6823F0F0027B681B6A314913430B6017
:102698002F4B5B6823F47F427B68DB691B022C4964
:1026A80013434B601AE02A4B1B68294A23F00103A5
:1026B8001360FEF747FD386108E0FEF743FD024668
:1026C8003B69D31A022B01D90323DDE2204B1B6897
:1026D80003F00203002BF0D100E000BF7B681B6809
:1026E80003F00103002B74D0BB69082B05D0BB692C
:1026F8000C2B0ED17B69032B0BD1154B1B6803F4F4
:102708000033002B64D07B685B68002B60D1012309
:10271800BAE27B685B68B3F5803F06D10C4B1B6857
:102728000B4A43F48033136026E07B685B68B3F59B
:10273800A02F15D1064B1B68054A43F4802313606C
:10274800034B1B68024A43F48033136014E000BF54
:1027580000100240603A0008000000200400002039
:10276800A04B1B689F4A23F4803313609D4B1B6862
:102778009C4A23F4802313607B685B68002B13D08A
:10278800FEF7E0FC386108E0FEF7DCFC02463B6936
:10279800D31A642B01D9032376E2924B1B6803F406
:1027A8000033002BF0D014E0FEF7CCFC386108E0D1
:1027B800FEF7C8FC02463B69D31A642B01D90323F0
:1027C80062E2884B1B6803F40033002BF0D100E071
:1027D80000BF7B681B6803F00203002B60D0BB6955
:1027E800042B05D0BB690C2B19D17B69022B16D1A0
:1027F8007C4B1B6803F48063002B05D07B68DB6887
:10280800002B01D101233FE2764B5B6823F0F8529D
:102818007B681B691B06734913434B6040E07B6868
:10282800DB68002B23D06F4B1B686E4A43F4807320
:102838001360FEF787FC386108E0FEF783FC024668
:102848003B69D31A022B01D903231DE2654B1B6890
:1028580003F48063002BF0D0624B5B6823F0F852DE
:102868007B681B691B065F4913434B6018E05D4B8F
:102878001B685C4A23F480731360FEF763FC3861BD
:1028880008E0FEF75FFC02463B69D31A022B01D928
:102898000323F9E1534B1B6803F48063002BF0D149
:1028A8007B681B6803F00803002B3CD07B685B69DE
:1028B800002B1CD04B4BD3F894304A4A43F0010309
:1028C800C2F89430FEF73EFC386108E0FEF73AFCA7
:1028D80002463B69D31A022B01D90323D4E1414BA9
:1028E800D3F8943003F00203002BEFD01BE03D4BEC
:1028F800D3F894303B4A23F00103C2F89430FEF732
:1029080021FC386108E0FEF71DFC02463B69D31A3A
:10291800022B01D90323B7E1324BD3F8943003F0EB
:102928000203002BEFD17B681B6803F00403002B24
:1029380000F0A6800023FB772A4B9B6D03F08053A1
:10294800002B0DD1274B9B6D264A43F0805393658E
:10295800244B9B6D03F08053BB60BB680123FB775E
:10296800214B1B6803F48073002B18D11E4B1B6886
:102978001D4A43F480731360FEF7E4FB386108E0F6
:10298800FEF7E0FB02463B69D31A022B01D9032369
:102998007AE1154B1B6803F48073002BF0D07B6839
:1029A8009B68012B08D10F4BD3F890300D4A43F0A8
:1029B8000103C2F8903029E07B689B68052B15D18C
:1029C800084BD3F89030074A43F00403C2F890301C
:1029D800044BD3F89030034A43F00103C2F8903017
:1029E80014E000BF00100240007000409C4BD3F878
:1029F80090309B4A23F00103C2F89030984BD3F8EB
:102A08009030974A23F00403C2F890307B689B68A3
:102A1800002B16D0FEF796FB38610AE0FEF792FB12
:102A280002463B69D31A41F28832934201D9032303
:102A38002AE18B4BD3F8903003F00203002BEDD042
:102A480015E0FEF77FFB38610AE0FEF77BFB0246E4
:102A58003B69D31A41F28832934201D9032313E127
:102A68007F4BD3F8903003F00203002BEDD1FB7FAE
:102A7800012B05D17A4B9B6D794A23F080539365DE
:102A88007B689B6A002B00F0FE807B689B6A022BA8
:102A980040F0D080724BDB687B617B6903F00302F6
:102AA8007B68DB6A9A4230D17B6903F070027B68ED
:102AB8001B6B013B1B019A4227D17B6903F4FE4241
:102AC8007B685B6B1B029A421FD17B6903F400335E
:102AD8007A68926B072A14BF01220022D2B293426D
:102AE80013D17B6903F4C0027B68DB6B5B08013B95
:102AF8005B059A4209D17B6903F0C0627B681B6C55
:102B08005B08013B5B069A426ED0BB690C2B69D00F
:102B1800534B1B6803F08063002B05D1504B1B6897
:102B280003F08053002B01D00123ADE04C4B1B6810
:102B38004B4A23F080731360FEF704FB386108E00A
:102B4800FEF700FB02463B69D31A022B01D9032387
:102B58009AE0434B1B6803F00073002BF0D1404B05
:102B6800DA68404B13407A68D16A7A68126B013A86
:102B7800120111437A68526B120211437A68D26BC0
:102B88005208013A520511437A68126C5208013A08
:102B9800520611437A68926B120952040A4330496B
:102BA8001343CB602E4B1B682D4A43F08073136090
:102BB8002B4BDB682A4A43F08073D360FEF7C2FAD6
:102BC800386108E0FEF7BEFA02463B69D31A022BC9
:102BD80001D9032358E0224B1B6803F00073002B34
:102BE800F0D050E001234FE01D4B1B6803F0007349
:102BF800002B48D11A4B1B68194A43F080731360A5
:102C0800174BDB68164A43F08073D360FEF79AFAD5
:102C1800386108E0FEF796FA02463B69D31A022BA0
:102C280001D9032330E00E4B1B6803F00073002B1F
:102C3800F0D028E0BB690C2B23D0094B1B68084A4D
:102C480023F080731360FEF77DFA38610CE0FEF71D
:102C580079FA02463B69D31A022B05D9032313E0FC
:102C6800001002408C809DF9094B1B6803F000732B
:102C7800002BECD1064BDA680549064B1340CB60B4
:102C880001E0012300E0002318462037BD4680BD3F
:102C980000100240FCFFEEFE80B584B000AF786003
:102CA80039607B68002B01D10123E7E0754B1B6875
:102CB80003F007033A689A4210D9724B1B6823F055
:102CC800070270493B6813430B606E4B1B6803F0A7
:102CD80007033A689A4201D00123CFE07B681B685A
:102CE80003F00203002B10D07B689A68664B9B6840
:102CF80003F0F0039A4208D9634B9B6823F0F00273
:102D08007B689B68604913438B607B681B6803F092
:102D18000103002B4CD07B685B68032B07D15A4B0F
:102D28001B6803F00073002B21D10123A6E07B6808
:102D38005B68022B07D1544B1B6803F40033002B4C
:102D480015D101239AE07B685B68002B07D14E4BB5
:102D58001B6803F00203002B09D101238EE04A4BC4
:102D68001B6803F48063002B01D1012386E0464BE6
:102D78009B6823F003027B685B68434913438B60BD
:102D8800FEF7E0F9F8600AE0FEF7DCF90246FB68B6
:102D9800D31A41F28832934201D903236EE03A4BA9
:102DA8009B6803F00C027B685B689B009A42EBD13E
:102DB8007B681B6803F00203002B10D07B689A68BD
:102DC800314B9B6803F0F0039A4208D22E4B9B6864
:102DD80023F0F0027B689B682B4913438B60294BD7
:102DE8001B6803F007033A689A4210D2254B1B6808
:102DF80023F0070223493B6813430B60214B1B68F0
:102E080003F007033A689A4201D0012336E07B6851
:102E18001B6803F00403002B08D01B4B9B6823F4AA
:102E2800E0627B68DB68184913438B607B681B682A
:102E380003F00803002B09D0134B9B6823F460525E
:102E48007B681B69DB00104913438B6000F024F892
:102E580002460D4B9B681B0903F00F030B49CB5C23
:102E680003F01F0322FA03F3094A1360094B1B6896
:102E78001846FEF717F90346FB72FB7A1846103717
:102E8800BD4680BD0020024000100240603A0008A4
:102E9800000000200400002080B489B000AF0023A7
:102EA800FB610023BB613E4B9B6803F00C033B6155
:102EB8003B4BDB6803F00303FB603B69002B05D049
:102EC8003B690C2B21D1FB68012B1ED1344B1B68AD
:102ED80003F00803002B07D1314BD3F894301B0AB9
:102EE80003F00F03FB6105E02D4B1B681B0903F082
:102EF8000F03FB612B4AFB6952F82330FB613B69E6
:102F0800002B0DD1FB69BB610AE03B69042B02D1A0
:102F1800254BBB6104E03B69082B01D1234BBB6106
:102F28003B690C2B34D11E4BDB6803F00303BB60F9
:102F3800BB68022B03D0BB68032B03D005E01A4BF8
:102F48007B6105E0194B7B6102E0FB697B6100BF97
:102F5800134BDB681B0903F0070301337B60104B3D
:102F6800DB681B0A03F07F037A6903FB02F27B68C4
:102F7800B2FBF3F37B610A4BDB685B0E03F00303E0
:102F880001335B003B607A693B68B2FBF3F3BB61DA
:102F9800BB6918462437BD465DF8047B704700BFFF
:102FA80000100240703A00080024F40000127A0071
:102FB80080B586B000AF786000233B612A4B9B6DDB
:102FC80003F08053002B03D0FFF726FA786114E052
:102FD800254B9B6D244A43F080539365224B9B6D90
:102FE80003F08053FB60FB68FFF716FA78611E4B0D
:102FF8009B6D1D4A23F0805393657B69B3F5007F71
:103008000BD17B68802B19D97B68A02B02D90223AE
:103018003B6113E001233B6110E07B68802B02D900
:1030280003233B610AE07B68802B02D102233B61CA
:1030380004E07B68702B01D101233B610B4B1B68BB
:1030480023F0070209493B6913430B60074B1B68D0
:1030580003F007033A699A4201D0012300E00023F4
:1030680018461837BD4680BD0010024000200240B7
:1030780080B586B000AF78600023FB740023BB7472
:103088007B681B6803F40063002B41D07B685B6E90
:10309800B3F5400F2AD0B3F5400F24D8B3F5000F8D
:1030A80008D0B3F5000F1ED8002B0AD0B3F5800F57
:1030B80010D018E0864BDB68854A43F48033D36030
:1030C80015E07B6804330021184600F0BBFA03467C
:1030D800FB740CE07B6820330021184600F0A6FB47
:1030E8000346FB7403E00123FB7400E000BFFB7C94
:1030F800002B0BD1764BD3F8883023F440027B6841
:103108005B6E73491343C1F8883001E0FB7CBB74E4
:103118007B681B6803F48053002B41D07B689B6E4F
:10312800B3F1407F2AD0B3F1407F24D8B3F1007FB8
:1031380008D0B3F1007F1ED8002B0AD0B3F1807FEE
:1031480010D018E0624BDB68614A43F48033D360E7
:1031580015E07B6804330021184600F073FA034633
:10316800FB740CE07B6820330021184600F05EFBFE
:103178000346FB7403E00123FB7400E000BFFB7C03
:10318800002B0BD1524BD3F8883023F040727B6868
:103198009B6E4F491343C1F8883001E0FB7CBB7438
:1031A8007B681B6803F40033002B00F0A080002329
:1031B8007B74474B9B6D03F08053002B01D1012397
:1031C80000E00023002B0DD0414B9B6D404A43F09B
:1031D800805393653E4B9B6D03F08053BB60BB6887
:1031E80001237B743B4B1B683A4A43F4807313609A
:1031F800FDF7A8FFF86009E0FDF7A4FF0246FB68A9
:10320800D31A022B02D90323FB7405E0314B1B6848
:1032180003F48073002BEFD0FB7C002B5CD12C4B8C
:10322800D3F8903003F440737B617B69002B1FD087
:103238007B68D3F884307A699A4219D0244BD3F842
:10324800903023F440737B61214BD3F89030204AAF
:1032580043F48033C2F890301D4BD3F890301C4AA9
:1032680023F48033C2F89030194A7B69C2F8903051
:103278007B6903F00103002B16D0FDF763FFF860AC
:103288000BE0FDF75FFF0246FB68D31A41F2883274
:10329800934202D90323FB7406E00D4BD3F8903018
:1032A80003F00203002BECD0FB7C002B0CD1084B65
:1032B800D3F8903023F440727B68D3F88430044903
:1032C8001343C1F8903009E0FB7CBB7406E000BFF3
:1032D8000010024000700040FB7CBB747B7C012B1B
:1032E80005D19E4B9B6D9D4A23F0805393657B6867
:1032F8001B6803F00103002B0AD0984BD3F88830E1
:1033080023F003027B689B6B94491343C1F8883010
:103318007B681B6803F00203002B0AD08F4BD3F89D
:10332800883023F00C027B68DB6B8C491343C1F8AF
:1033380088307B681B6803F00403002B0AD0874B96
:10334800D3F8883023F030027B681B6C8349134321
:10335800C1F888307B681B6803F00803002B0AD08B
:103368007E4BD3F8883023F0C0027B685B6C7B49C6
:103378001343C1F888307B681B6803F01003002BE7
:103388000AD0764BD3F8883023F440727B689B6C64
:1033980072491343C1F888307B681B6803F0200327
:1033A800002B0AD06D4BD3F8883023F440627B6839
:1033B800DB6C6A491343C1F888307B681B6803F4E7
:1033C8000073002B0AD0654BD3F8883023F44022D1
:1033D8007B68DB6D61491343C1F888307B681B68E3
:1033E80003F48063002B0AD05C4BD3F8883023F4B5
:1033F80040127B681B6E59491343C1F888307B68BB
:103408001B6803F04003002B0AD0544BD3F88830D4
:1034180023F440527B681B6D50491343C1F8883030
:103428007B681B6803F08003002B0AD04B4BD3F852
:10343800883023F440427B685B6D48491343C1F8E8
:1034480088307B681B6803F48073002B0AD0434BD9
:10345800D3F8883023F440327B689B6D3F4913438F
:10346800C1F888307B681B6803F40053002B28D010
:103478003A4BD3F8883023F040627B68DB6E3749DB
:103488001343C1F888307B68DB6EB3F1006F06D157
:10349800324BDB68314A43F48013D36011E07B6818
:1034A800DB6EB3F1806F0CD17B68043301211846C1
:1034B80000F0C8F80346FB74FB7C002B01D0FB7CB2
:1034C800BB747B681B6803F40023002B28D0234BB4
:1034D800D3F8883023F040627B681B6F1F49134381
:1034E800C1F888307B681B6FB3F1006F06D11B4BA6
:1034F800DB681A4A43F48013D36011E07B681B6FC2
:10350800B3F1806F0CD17B6804330121184600F0B9
:1035180099F80346FB74FB7C002B01D0FB7CBB7441
:103528007B681B6803F48023002B2BD00B4BD3F84C
:10353800883023F040627B685B6F08491343C1F809
:1035480088307B685B6FB3F1006F09D1034BDB6890
:10355800024A43F48013D36014E000BF0010024015
:103568007B685B6FB3F1806F0CD17B6804330121FA
:10357800184600F067F80346FB74FB7C002B01D06B
:10358800FB7CBB747B681B6803F48043002B2FD043
:103598002B4BD3F8883023F040527B689B6F284927
:1035A8001343C1F888307B689B6FB3F1805F0DD1FE
:1035B8007B6804330221184600F044F80346FB7484
:1035C800FB7C002B14D0FB7CBB7411E07B689B6FE9
:1035D800B3F1005F0CD17B6820330221184600F05C
:1035E80025F90346FB74FB7C002B01D0FB7CBB74E4
:1035F8007B681B6803F40043002B0AD0104BD3F8F8
:10360800883023F080427B68DB6F0D491343C1F893
:1036180088307B681B6803F48033002B0BD0084B81
:10362800D3F8883023F000427B68D3F8803004490F
:103638001343C1F88830BB7C18461837BD4680BD97
:103648000010024080B584B000AF78603960002374
:10365800FB73754BDB6803F00303002B18D0724B28
:10366800DB6803F003027B681B689A420DD17B6814
:103678001B68002B09D06C4BDB681B0903F00703A0
:103688005A1C7B685B689A4247D00123FB7344E06D
:103698007B681B68032B18D0032B25D8012B02D07D
:1036A800022B09D020E0604B1B6803F00203002BBB
:1036B8001DD10123FB731AE05B4B1B6803F4806385
:1036C800002B16D10123FB7313E0574B1B6803F43F
:1036D8000033002B0FD1544B1B6803F48023002BBD
:1036E80009D10123FB7306E00123FB7304E000BF4B
:1036F80002E000BF00E000BFFB7B002B0DD14A4B6E
:10370800DB6823F073027B6819687B685B68013BA0
:103718001B010B4344491343CB60FB7B002B7DD13A
:10372800414B1B68404A23F080631360FDF70AFD94
:10373800B86009E0FDF706FD0246BB68D31A022B04
:1037480002D90323FB7305E0374B1B6803F00063C2
:10375800002BEFD1FB7B002B60D13B68002B11D1F4
:10376800314B1B6923F41F3323F440737A68926842
:1037780011027A68D268120952040A432A4913438B
:103788000B6127E03B68012B12D1274B1B6923F4FF
:10379800C00323F4FE437A68926811027A681269BA
:1037A8005208013A52050A431F4913430B6111E0BD
:1037B8001D4B1B6923F0C06323F4FE437A689268AB
:1037C80011027A6852695208013A52060A431649A8
:1037D80013430B61144B1B68134A43F08063136057
:1037E800FDF7B0FCB86009E0FDF7ACFC0246BB6829
:1037F800D31A022B02D90323FB7305E00A4B1B687B
:1038080003F00063002BEFD0FB7B002B06D1064BA7
:103818001A697B689B69044913430B61FB7B184653
:103828001037BD4680BD00BF0010024080B584B08F
:1038380000AF786039600023FB736A4BDB6803F0E4
:103848000303002B18D0674BDB6803F003027B6887
:103858001B689A420DD17B681B68002B09D0614B0D
:10386800DB681B0903F007035A1C7B685B689A42F4
:1038780047D00123FB7344E07B681B68032B18D0F7
:10388800032B25D8012B02D0022B09D020E0554B61
:103898001B6803F00203002B1DD10123FB731AE000
:1038A800504B1B6803F48063002B16D10123FB7374
:1038B80013E04C4B1B6803F40033002B0FD1494B2A
:1038C8001B6803F48023002B09D10123FB7306E056
:1038D8000123FB7304E000BF02E000BF00E000BF6B
:1038E800FB7B002B0DD13F4BDB6823F073027B6819
:1038F80019687B685B68013B1B010B43394913431B
:10390800CB60FB7B002B67D1364B1B68354A23F015
:1039180080531360FDF716FCB86009E0FDF712FC50
:103928000246BB68D31A022B02D90323FB7305E0B6
:103938002C4B1B6803F00053002BEFD1FB7B002BB3
:103948004AD13B68002B11D1264B5B6923F41F3306
:1039580023F440737A68926811027A68D26812096F
:1039680052040A431F4913434B6111E01D4B5B6925
:1039780023F0C06323F4FE437A68926811027A68E0
:1039880012695208013A52060A43164913434B6119
:10399800144B1B68134A43F080531360FDF7D2FBA6
:1039A800B86009E0FDF7CEFB0246BB68D31A022BCC
:1039B80002D90323FB7305E00A4B1B6803F000538D
:1039C800002BEFD0FB7B002B06D1064B5A697B6896
:1039D8005B69044913434B61FB7B18461037BD46AE
:1039E80080BD00BF0010024070B50D4D0D4C641B2A
:1039F800A4100026A64209D10B4D0C4C00F020F86B
:103A0800641BA4100026A64205D170BD55F8043BDE
:103A180098470136EEE755F8043B98470136F2E738
:103A2800A03A0008A03A0008A03A0008A43A000802
:103A380002440346934200D1704703F8011BF9E79B
:103A4800F8B500BFF8BC08BC9E467047F8B500BF83
:083A5800F8BC08BC9E46704753
:103A6000000000000000000001020304060708092E
:103A7000A0860100400D0300801A060000350C00EE
:103A800040420F0080841E0000093D0000127A00B1
:103A90000024F40000366E010048E801006CDC02EE
:043AA000AD0100086C
:043AA400890100088C
:0C3AA80000093D001000000001000000BB
:0400000508001019C6
:00000001FF
